{
  "_format": "hh-sol-artifact-1",
  "contractName": "NftNftSwapAllowlist",
  "sourceName": "contracts/NftNftSwapAllowlist.sol",
  "abi": [
    {
      "inputs": [
        {
          "internalType": "address[]",
          "name": "initialAllowlist",
          "type": "address[]"
        },
        {
          "internalType": "string[]",
          "name": "names",
          "type": "string[]"
        }
      ],
      "stateMutability": "nonpayable",
      "type": "constructor"
    },
    {
      "anonymous": false,
      "inputs": [
        {
          "indexed": true,
          "internalType": "address",
          "name": "collection",
          "type": "address"
        },
        {
          "indexed": false,
          "internalType": "bool",
          "name": "allowed",
          "type": "bool"
        },
        {
          "indexed": false,
          "internalType": "string",
          "name": "name",
          "type": "string"
        }
      ],
      "name": "AllowedCollectionUpdated",
      "type": "event"
    },
    {
      "anonymous": false,
      "inputs": [
        {
          "indexed": true,
          "internalType": "address",
          "name": "previousOwner",
          "type": "address"
        },
        {
          "indexed": true,
          "internalType": "address",
          "name": "newOwner",
          "type": "address"
        }
      ],
      "name": "OwnershipTransferred",
      "type": "event"
    },
    {
      "anonymous": false,
      "inputs": [
        {
          "indexed": true,
          "internalType": "uint256",
          "name": "swapId",
          "type": "uint256"
        },
        {
          "indexed": true,
          "internalType": "address",
          "name": "accepter",
          "type": "address"
        }
      ],
      "name": "SwapAccepted",
      "type": "event"
    },
    {
      "anonymous": false,
      "inputs": [
        {
          "indexed": true,
          "internalType": "uint256",
          "name": "swapId",
          "type": "uint256"
        }
      ],
      "name": "SwapCancelled",
      "type": "event"
    },
    {
      "anonymous": false,
      "inputs": [
        {
          "indexed": true,
          "internalType": "uint256",
          "name": "swapId",
          "type": "uint256"
        },
        {
          "indexed": true,
          "internalType": "address",
          "name": "proposer",
          "type": "address"
        }
      ],
      "name": "SwapProposed",
      "type": "event"
    },
    {
      "inputs": [
        {
          "internalType": "uint256",
          "name": "swapId",
          "type": "uint256"
        }
      ],
      "name": "acceptSwap",
      "outputs": [],
      "stateMutability": "nonpayable",
      "type": "function"
    },
    {
      "inputs": [
        {
          "internalType": "address",
          "name": "collection",
          "type": "address"
        },
        {
          "internalType": "string",
          "name": "name",
          "type": "string"
        }
      ],
      "name": "addAllowedCollection",
      "outputs": [],
      "stateMutability": "nonpayable",
      "type": "function"
    },
    {
      "inputs": [
        {
          "internalType": "address",
          "name": "",
          "type": "address"
        }
      ],
      "name": "allowedCollection",
      "outputs": [
        {
          "internalType": "bool",
          "name": "",
          "type": "bool"
        }
      ],
      "stateMutability": "view",
      "type": "function"
    },
    {
      "inputs": [
        {
          "internalType": "uint256",
          "name": "",
          "type": "uint256"
        }
      ],
      "name": "allowedCollectionsList",
      "outputs": [
        {
          "internalType": "address",
          "name": "",
          "type": "address"
        }
      ],
      "stateMutability": "view",
      "type": "function"
    },
    {
      "inputs": [
        {
          "internalType": "uint256",
          "name": "swapId",
          "type": "uint256"
        }
      ],
      "name": "cancelSwap",
      "outputs": [],
      "stateMutability": "nonpayable",
      "type": "function"
    },
    {
      "inputs": [],
      "name": "getAllowedCollections",
      "outputs": [
        {
          "internalType": "address[]",
          "name": "",
          "type": "address[]"
        },
        {
          "internalType": "string[]",
          "name": "",
          "type": "string[]"
        }
      ],
      "stateMutability": "view",
      "type": "function"
    },
    {
      "inputs": [
        {
          "internalType": "address",
          "name": "",
          "type": "address"
        }
      ],
      "name": "nftNames",
      "outputs": [
        {
          "internalType": "string",
          "name": "",
          "type": "string"
        }
      ],
      "stateMutability": "view",
      "type": "function"
    },
    {
      "inputs": [
        {
          "internalType": "address",
          "name": "",
          "type": "address"
        },
        {
          "internalType": "address",
          "name": "",
          "type": "address"
        },
        {
          "internalType": "uint256",
          "name": "",
          "type": "uint256"
        },
        {
          "internalType": "bytes",
          "name": "",
          "type": "bytes"
        }
      ],
      "name": "onERC721Received",
      "outputs": [
        {
          "internalType": "bytes4",
          "name": "",
          "type": "bytes4"
        }
      ],
      "stateMutability": "nonpayable",
      "type": "function"
    },
    {
      "inputs": [],
      "name": "owner",
      "outputs": [
        {
          "internalType": "address",
          "name": "",
          "type": "address"
        }
      ],
      "stateMutability": "view",
      "type": "function"
    },
    {
      "inputs": [
        {
          "internalType": "address",
          "name": "proposerNFT",
          "type": "address"
        },
        {
          "internalType": "uint256",
          "name": "proposerTokenId",
          "type": "uint256"
        },
        {
          "internalType": "address",
          "name": "targetNFT",
          "type": "address"
        },
        {
          "internalType": "uint256",
          "name": "targetTokenId",
          "type": "uint256"
        }
      ],
      "name": "proposeSwap",
      "outputs": [
        {
          "internalType": "uint256",
          "name": "",
          "type": "uint256"
        }
      ],
      "stateMutability": "nonpayable",
      "type": "function"
    },
    {
      "inputs": [
        {
          "internalType": "address",
          "name": "collection",
          "type": "address"
        }
      ],
      "name": "removeAllowedCollection",
      "outputs": [],
      "stateMutability": "nonpayable",
      "type": "function"
    },
    {
      "inputs": [],
      "name": "renounceOwnership",
      "outputs": [],
      "stateMutability": "nonpayable",
      "type": "function"
    },
    {
      "inputs": [],
      "name": "swapCount",
      "outputs": [
        {
          "internalType": "uint256",
          "name": "",
          "type": "uint256"
        }
      ],
      "stateMutability": "view",
      "type": "function"
    },
    {
      "inputs": [
        {
          "internalType": "uint256",
          "name": "",
          "type": "uint256"
        }
      ],
      "name": "swaps",
      "outputs": [
        {
          "internalType": "address",
          "name": "proposer",
          "type": "address"
        },
        {
          "internalType": "address",
          "name": "proposerNFT",
          "type": "address"
        },
        {
          "internalType": "uint256",
          "name": "proposerTokenId",
          "type": "uint256"
        },
        {
          "internalType": "address",
          "name": "targetNFT",
          "type": "address"
        },
        {
          "internalType": "uint256",
          "name": "targetTokenId",
          "type": "uint256"
        },
        {
          "internalType": "bool",
          "name": "active",
          "type": "bool"
        }
      ],
      "stateMutability": "view",
      "type": "function"
    },
    {
      "inputs": [
        {
          "internalType": "address",
          "name": "newOwner",
          "type": "address"
        }
      ],
      "name": "transferOwnership",
      "outputs": [],
      "stateMutability": "nonpayable",
      "type": "function"
    }
  ],
  "bytecode": "0x60806040523480156200001157600080fd5b50604051620033fb380380620033fb833981810160405281019062000037919062000791565b620000576200004b620002fb60201b60201c565b6200030360201b60201c565b600180819055508051825114620000a5576040517f08c379a00000000000000000000000000000000000000000000000000000000081526004016200009c9062000877565b60405180910390fd5b60005b8251811015620002f2576000838281518110620000ca57620000c962000899565b5b602002602001015190506000838381518110620000ec57620000eb62000899565b5b60200260200101519050600073ffffffffffffffffffffffffffffffffffffffff168273ffffffffffffffffffffffffffffffffffffffff16141580156200017e5750600460008373ffffffffffffffffffffffffffffffffffffffff1673ffffffffffffffffffffffffffffffffffffffff16815260200190815260200160002060009054906101000a900460ff16155b15620002e2576001600460008473ffffffffffffffffffffffffffffffffffffffff1673ffffffffffffffffffffffffffffffffffffffff16815260200190815260200160002060006101000a81548160ff02191690831515021790555080600560008473ffffffffffffffffffffffffffffffffffffffff1673ffffffffffffffffffffffffffffffffffffffff16815260200190815260200160002090816200022a919062000b13565b506006829080600181540180825580915050600190039060005260206000200160009091909190916101000a81548173ffffffffffffffffffffffffffffffffffffffff021916908373ffffffffffffffffffffffffffffffffffffffff1602179055508173ffffffffffffffffffffffffffffffffffffffff167f6f0b6317be8f477e3348e24d06c664bc22c336294e277e02640338e173ad9ad2600183604051620002d992919062000c58565b60405180910390a25b50508080600101915050620000a8565b50505062000c8c565b600033905090565b60008060009054906101000a900473ffffffffffffffffffffffffffffffffffffffff169050816000806101000a81548173ffffffffffffffffffffffffffffffffffffffff021916908373ffffffffffffffffffffffffffffffffffffffff1602179055508173ffffffffffffffffffffffffffffffffffffffff168173ffffffffffffffffffffffffffffffffffffffff167f8be0079c531659141344cd1fd0a4f28419497f9722a3daafe3b4186f6b6457e060405160405180910390a35050565b6000604051905090565b600080fd5b600080fd5b600080fd5b6000601f19601f8301169050919050565b7f4e487b7100000000000000000000000000000000000000000000000000000000600052604160045260246000fd5b6200042b82620003e0565b810181811067ffffffffffffffff821117156200044d576200044c620003f1565b5b80604052505050565b600062000462620003c7565b905062000470828262000420565b919050565b600067ffffffffffffffff821115620004935762000492620003f1565b5b602082029050602081019050919050565b600080fd5b600073ffffffffffffffffffffffffffffffffffffffff82169050919050565b6000620004d682620004a9565b9050919050565b620004e881620004c9565b8114620004f457600080fd5b50565b6000815190506200050881620004dd565b92915050565b6000620005256200051f8462000475565b62000456565b905080838252602082019050602084028301858111156200054b576200054a620004a4565b5b835b81811015620005785780620005638882620004f7565b8452602084019350506020810190506200054d565b5050509392505050565b600082601f8301126200059a5762000599620003db565b5b8151620005ac8482602086016200050e565b91505092915050565b600067ffffffffffffffff821115620005d357620005d2620003f1565b5b602082029050602081019050919050565b600080fd5b600067ffffffffffffffff821115620006075762000606620003f1565b5b6200061282620003e0565b9050602081019050919050565b60005b838110156200063f57808201518184015260208101905062000622565b60008484015250505050565b6000620006626200065c84620005e9565b62000456565b905082815260208101848484011115620006815762000680620005e4565b5b6200068e8482856200061f565b509392505050565b600082601f830112620006ae57620006ad620003db565b5b8151620006c08482602086016200064b565b91505092915050565b6000620006e0620006da84620005b5565b62000456565b90508083825260208201905060208402830185811115620007065762000705620004a4565b5b835b818110156200075457805167ffffffffffffffff8111156200072f576200072e620003db565b5b8086016200073e898262000696565b8552602085019450505060208101905062000708565b5050509392505050565b600082601f830112620007765762000775620003db565b5b815162000788848260208601620006c9565b91505092915050565b60008060408385031215620007ab57620007aa620003d1565b5b600083015167ffffffffffffffff811115620007cc57620007cb620003d6565b5b620007da8582860162000582565b925050602083015167ffffffffffffffff811115620007fe57620007fd620003d6565b5b6200080c858286016200075e565b9150509250929050565b600082825260208201905092915050565b7f6c656e677468206d69736d617463680000000000000000000000000000000000600082015250565b60006200085f600f8362000816565b91506200086c8262000827565b602082019050919050565b60006020820190508181036000830152620008928162000850565b9050919050565b7f4e487b7100000000000000000000000000000000000000000000000000000000600052603260045260246000fd5b600081519050919050565b7f4e487b7100000000000000000000000000000000000000000000000000000000600052602260045260246000fd5b600060028204905060018216806200091b57607f821691505b602082108103620009315762000930620008d3565b5b50919050565b60008190508160005260206000209050919050565b60006020601f8301049050919050565b600082821b905092915050565b6000600883026200099b7fffffffffffffffffffffffffffffffffffffffffffffffffffffffffffffffff826200095c565b620009a786836200095c565b95508019841693508086168417925050509392505050565b6000819050919050565b6000819050919050565b6000620009f4620009ee620009e884620009bf565b620009c9565b620009bf565b9050919050565b6000819050919050565b62000a1083620009d3565b62000a2862000a1f82620009fb565b84845462000969565b825550505050565b600090565b62000a3f62000a30565b62000a4c81848462000a05565b505050565b5b8181101562000a745762000a6860008262000a35565b60018101905062000a52565b5050565b601f82111562000ac35762000a8d8162000937565b62000a98846200094c565b8101602085101562000aa8578190505b62000ac062000ab7856200094c565b83018262000a51565b50505b505050565b600082821c905092915050565b600062000ae86000198460080262000ac8565b1980831691505092915050565b600062000b03838362000ad5565b9150826002028217905092915050565b62000b1e82620008c8565b67ffffffffffffffff81111562000b3a5762000b39620003f1565b5b62000b46825462000902565b62000b5382828562000a78565b600060209050601f83116001811462000b8b576000841562000b76578287015190505b62000b82858262000af5565b86555062000bf2565b601f19841662000b9b8662000937565b60005b8281101562000bc55784890151825560018201915060208501945060208101905062000b9e565b8683101562000be5578489015162000be1601f89168262000ad5565b8355505b6001600288020188555050505b505050505050565b60008115159050919050565b62000c118162000bfa565b82525050565b600062000c2482620008c8565b62000c30818562000816565b935062000c428185602086016200061f565b62000c4d81620003e0565b840191505092915050565b600060408201905062000c6f600083018562000c06565b818103602083015262000c83818462000c17565b90509392505050565b61275f8062000c9c6000396000f3fe608060405234801561001057600080fd5b50600436106100f55760003560e01c806354d6a2b7116100975780638da5cb5b116100665780638da5cb5b14610271578063ada3d1001461028f578063f09c5829146102bf578063f2fde38b146102f4576100f5565b806354d6a2b7146101eb578063715018a6146102075780637521f65b146102115780637e22577114610241576100f5565b80631bf33004116100d35780631bf33004146101765780632eff0d9e146101925780633a51f383146101b05780634bd61f84146101cf576100f5565b806305fec8a3146100fa578063150b7a021461012a57806315acf41e1461015a575b600080fd5b610114600480360381019061010f91906116f5565b610310565b60405161012191906117b2565b60405180910390f35b610144600480360381019061013f919061193f565b6103b0565b60405161015191906119fd565b60405180910390f35b610174600480360381019061016f91906116f5565b6103c4565b005b610190600480360381019061018b9190611a18565b6106e6565b005b61019a610915565b6040516101a79190611a54565b60405180910390f35b6101b861091b565b6040516101c6929190611c39565b60405180910390f35b6101e960048036038101906101e49190611d11565b610b4b565b005b61020560048036038101906102009190611a18565b610d71565b005b61020f610f84565b005b61022b600480360381019061022691906116f5565b610f98565b6040516102389190611d88565b60405180910390f35b61025b60048036038101906102569190611a18565b610fb8565b6040516102689190611db2565b60405180910390f35b610279610ff7565b6040516102869190611db2565b60405180910390f35b6102a960048036038101906102a49190611dcd565b611020565b6040516102b69190611a54565b60405180910390f35b6102d960048036038101906102d49190611a18565b6113b5565b6040516102eb96959493929190611e34565b60405180910390f35b61030e600480360381019061030991906116f5565b61145e565b005b6005602052806000526040600020600091509050805461032f90611ec4565b80601f016020809104026020016040519081016040528092919081815260200182805461035b90611ec4565b80156103a85780601f1061037d576101008083540402835291602001916103a8565b820191906000526020600020905b81548152906001019060200180831161038b57829003601f168201915b505050505081565b600063150b7a0260e01b9050949350505050565b6103cc6114e1565b600460008273ffffffffffffffffffffffffffffffffffffffff1673ffffffffffffffffffffffffffffffffffffffff16815260200190815260200160002060009054906101000a900460ff16610458576040517f08c379a000000000000000000000000000000000000000000000000000000000815260040161044f90611f41565b60405180910390fd5b6000600460008373ffffffffffffffffffffffffffffffffffffffff1673ffffffffffffffffffffffffffffffffffffffff16815260200190815260200160002060006101000a81548160ff02191690831515021790555060405180602001604052806000815250600560008373ffffffffffffffffffffffffffffffffffffffff1673ffffffffffffffffffffffffffffffffffffffff168152602001908152602001600020908161050b919061210d565b506000600680549050905060005b81811015610692578273ffffffffffffffffffffffffffffffffffffffff166006828154811061054c5761054b6121df565b5b9060005260206000200160009054906101000a900473ffffffffffffffffffffffffffffffffffffffff1673ffffffffffffffffffffffffffffffffffffffff16036106855760066001836105a1919061223d565b815481106105b2576105b16121df565b5b9060005260206000200160009054906101000a900473ffffffffffffffffffffffffffffffffffffffff16600682815481106105f1576105f06121df565b5b9060005260206000200160006101000a81548173ffffffffffffffffffffffffffffffffffffffff021916908373ffffffffffffffffffffffffffffffffffffffff160217905550600680548061064b5761064a612271565b5b6001900381819060005260206000200160006101000a81549073ffffffffffffffffffffffffffffffffffffffff02191690559055610692565b8080600101915050610519565b508173ffffffffffffffffffffffffffffffffffffffff167f6f0b6317be8f477e3348e24d06c664bc22c336294e277e02640338e173ad9ad260006040516106da91906122c6565b60405180910390a25050565b6106ee61155f565b60006003600083815260200190815260200160002090508060050160009054906101000a900460ff16610756576040517f08c379a000000000000000000000000000000000000000000000000000000000815260040161074d90612340565b60405180910390fd5b8060030160009054906101000a900473ffffffffffffffffffffffffffffffffffffffff1673ffffffffffffffffffffffffffffffffffffffff166323b872dd338360000160009054906101000a900473ffffffffffffffffffffffffffffffffffffffff1684600401546040518463ffffffff1660e01b81526004016107df93929190612360565b600060405180830381600087803b1580156107f957600080fd5b505af115801561080d573d6000803e3d6000fd5b505050508060010160009054906101000a900473ffffffffffffffffffffffffffffffffffffffff1673ffffffffffffffffffffffffffffffffffffffff166323b872dd303384600201546040518463ffffffff1660e01b815260040161087693929190612360565b600060405180830381600087803b15801561089057600080fd5b505af11580156108a4573d6000803e3d6000fd5b5050505060008160050160006101000a81548160ff0219169083151502179055503373ffffffffffffffffffffffffffffffffffffffff16827f38eced64b5c4ab50bb61d2f5fcace3c629a2d92f974374bf4a4f3e8a7c49caef60405160405180910390a3506109126115ae565b50565b60025481565b606080600060068054905067ffffffffffffffff81111561093f5761093e611814565b5b60405190808252806020026020018201604052801561097257816020015b606081526020019060019003908161095d5790505b50905060005b600680549050811015610ab657600560006006838154811061099d5761099c6121df565b5b9060005260206000200160009054906101000a900473ffffffffffffffffffffffffffffffffffffffff1673ffffffffffffffffffffffffffffffffffffffff1673ffffffffffffffffffffffffffffffffffffffff1681526020019081526020016000208054610a0d90611ec4565b80601f0160208091040260200160405190810160405280929190818152602001828054610a3990611ec4565b8015610a865780601f10610a5b57610100808354040283529160200191610a86565b820191906000526020600020905b815481529060010190602001808311610a6957829003601f168201915b5050505050828281518110610a9e57610a9d6121df565b5b60200260200101819052508080600101915050610978565b5060068181805480602002602001604051908101604052809291908181526020018280548015610b3b57602002820191906000526020600020905b8160009054906101000a900473ffffffffffffffffffffffffffffffffffffffff1673ffffffffffffffffffffffffffffffffffffffff1681526020019060010190808311610af1575b5050505050915092509250509091565b610b536114e1565b600073ffffffffffffffffffffffffffffffffffffffff168273ffffffffffffffffffffffffffffffffffffffff1603610bc2576040517f08c379a0000000000000000000000000000000000000000000000000000000008152600401610bb9906123e3565b60405180910390fd5b600460008373ffffffffffffffffffffffffffffffffffffffff1673ffffffffffffffffffffffffffffffffffffffff16815260200190815260200160002060009054906101000a900460ff16610d6d576001600460008473ffffffffffffffffffffffffffffffffffffffff1673ffffffffffffffffffffffffffffffffffffffff16815260200190815260200160002060006101000a81548160ff02191690831515021790555080600560008473ffffffffffffffffffffffffffffffffffffffff1673ffffffffffffffffffffffffffffffffffffffff1681526020019081526020016000209081610cb7919061210d565b506006829080600181540180825580915050600190039060005260206000200160009091909190916101000a81548173ffffffffffffffffffffffffffffffffffffffff021916908373ffffffffffffffffffffffffffffffffffffffff1602179055508173ffffffffffffffffffffffffffffffffffffffff167f6f0b6317be8f477e3348e24d06c664bc22c336294e277e02640338e173ad9ad2600183604051610d64929190612403565b60405180910390a25b5050565b610d7961155f565b60006003600083815260200190815260200160002090508060050160009054906101000a900460ff16610de1576040517f08c379a0000000000000000000000000000000000000000000000000000000008152600401610dd890612340565b60405180910390fd5b3373ffffffffffffffffffffffffffffffffffffffff168160000160009054906101000a900473ffffffffffffffffffffffffffffffffffffffff1673ffffffffffffffffffffffffffffffffffffffff1614610e73576040517f08c379a0000000000000000000000000000000000000000000000000000000008152600401610e6a9061247f565b60405180910390fd5b8060010160009054906101000a900473ffffffffffffffffffffffffffffffffffffffff1673ffffffffffffffffffffffffffffffffffffffff166323b872dd308360000160009054906101000a900473ffffffffffffffffffffffffffffffffffffffff1684600201546040518463ffffffff1660e01b8152600401610efc93929190612360565b600060405180830381600087803b158015610f1657600080fd5b505af1158015610f2a573d6000803e3d6000fd5b5050505060008160050160006101000a81548160ff021916908315150217905550817ff6b6b4f7a13f02512c1b3aa8dcc4a07d7775a6a4becbd439efcbd37c5408e67f60405160405180910390a250610f816115ae565b50565b610f8c6114e1565b610f9660006115b7565b565b60046020528060005260406000206000915054906101000a900460ff1681565b60068181548110610fc857600080fd5b906000526020600020016000915054906101000a900473ffffffffffffffffffffffffffffffffffffffff1681565b60008060009054906101000a900473ffffffffffffffffffffffffffffffffffffffff16905090565b600061102a61155f565b600460008673ffffffffffffffffffffffffffffffffffffffff1673ffffffffffffffffffffffffffffffffffffffff16815260200190815260200160002060009054906101000a900460ff166110b6576040517f08c379a00000000000000000000000000000000000000000000000000000000081526004016110ad906124eb565b60405180910390fd5b600460008473ffffffffffffffffffffffffffffffffffffffff1673ffffffffffffffffffffffffffffffffffffffff16815260200190815260200160002060009054906101000a900460ff16611142576040517f08c379a000000000000000000000000000000000000000000000000000000000815260040161113990612557565b60405180910390fd5b8473ffffffffffffffffffffffffffffffffffffffff166323b872dd3330876040518463ffffffff1660e01b815260040161117f93929190612360565b600060405180830381600087803b15801561119957600080fd5b505af11580156111ad573d6000803e3d6000fd5b505050506000600260008154809291906111c690612577565b9190505590506040518060c001604052803373ffffffffffffffffffffffffffffffffffffffff1681526020018773ffffffffffffffffffffffffffffffffffffffff1681526020018681526020018573ffffffffffffffffffffffffffffffffffffffff168152602001848152602001600115158152506003600083815260200190815260200160002060008201518160000160006101000a81548173ffffffffffffffffffffffffffffffffffffffff021916908373ffffffffffffffffffffffffffffffffffffffff16021790555060208201518160010160006101000a81548173ffffffffffffffffffffffffffffffffffffffff021916908373ffffffffffffffffffffffffffffffffffffffff1602179055506040820151816002015560608201518160030160006101000a81548173ffffffffffffffffffffffffffffffffffffffff021916908373ffffffffffffffffffffffffffffffffffffffff1602179055506080820151816004015560a08201518160050160006101000a81548160ff0219169083151502179055509050503373ffffffffffffffffffffffffffffffffffffffff16817f231e62415d7de6b1148349be9f721c8e274eb2fabe6ef7652b8b7732696149d560405160405180910390a3809150506113ad6115ae565b949350505050565b60036020528060005260406000206000915090508060000160009054906101000a900473ffffffffffffffffffffffffffffffffffffffff16908060010160009054906101000a900473ffffffffffffffffffffffffffffffffffffffff16908060020154908060030160009054906101000a900473ffffffffffffffffffffffffffffffffffffffff16908060040154908060050160009054906101000a900460ff16905086565b6114666114e1565b600073ffffffffffffffffffffffffffffffffffffffff168173ffffffffffffffffffffffffffffffffffffffff16036114d5576040517f08c379a00000000000000000000000000000000000000000000000000000000081526004016114cc90612631565b60405180910390fd5b6114de816115b7565b50565b6114e961167b565b73ffffffffffffffffffffffffffffffffffffffff16611507610ff7565b73ffffffffffffffffffffffffffffffffffffffff161461155d576040517f08c379a00000000000000000000000000000000000000000000000000000000081526004016115549061269d565b60405180910390fd5b565b6002600154036115a4576040517f08c379a000000000000000000000000000000000000000000000000000000000815260040161159b90612709565b60405180910390fd5b6002600181905550565b60018081905550565b60008060009054906101000a900473ffffffffffffffffffffffffffffffffffffffff169050816000806101000a81548173ffffffffffffffffffffffffffffffffffffffff021916908373ffffffffffffffffffffffffffffffffffffffff1602179055508173ffffffffffffffffffffffffffffffffffffffff168173ffffffffffffffffffffffffffffffffffffffff167f8be0079c531659141344cd1fd0a4f28419497f9722a3daafe3b4186f6b6457e060405160405180910390a35050565b600033905090565b6000604051905090565b600080fd5b600080fd5b600073ffffffffffffffffffffffffffffffffffffffff82169050919050565b60006116c282611697565b9050919050565b6116d2816116b7565b81146116dd57600080fd5b50565b6000813590506116ef816116c9565b92915050565b60006020828403121561170b5761170a61168d565b5b6000611719848285016116e0565b91505092915050565b600081519050919050565b600082825260208201905092915050565b60005b8381101561175c578082015181840152602081019050611741565b60008484015250505050565b6000601f19601f8301169050919050565b600061178482611722565b61178e818561172d565b935061179e81856020860161173e565b6117a781611768565b840191505092915050565b600060208201905081810360008301526117cc8184611779565b905092915050565b6000819050919050565b6117e7816117d4565b81146117f257600080fd5b50565b600081359050611804816117de565b92915050565b600080fd5b600080fd5b7f4e487b7100000000000000000000000000000000000000000000000000000000600052604160045260246000fd5b61184c82611768565b810181811067ffffffffffffffff8211171561186b5761186a611814565b5b80604052505050565b600061187e611683565b905061188a8282611843565b919050565b600067ffffffffffffffff8211156118aa576118a9611814565b5b6118b382611768565b9050602081019050919050565b82818337600083830152505050565b60006118e26118dd8461188f565b611874565b9050828152602081018484840111156118fe576118fd61180f565b5b6119098482856118c0565b509392505050565b600082601f8301126119265761192561180a565b5b81356119368482602086016118cf565b91505092915050565b600080600080608085870312156119595761195861168d565b5b6000611967878288016116e0565b9450506020611978878288016116e0565b9350506040611989878288016117f5565b925050606085013567ffffffffffffffff8111156119aa576119a9611692565b5b6119b687828801611911565b91505092959194509250565b60007fffffffff0000000000000000000000000000000000000000000000000000000082169050919050565b6119f7816119c2565b82525050565b6000602082019050611a1260008301846119ee565b92915050565b600060208284031215611a2e57611a2d61168d565b5b6000611a3c848285016117f5565b91505092915050565b611a4e816117d4565b82525050565b6000602082019050611a696000830184611a45565b92915050565b600081519050919050565b600082825260208201905092915050565b6000819050602082019050919050565b611aa4816116b7565b82525050565b6000611ab68383611a9b565b60208301905092915050565b6000602082019050919050565b6000611ada82611a6f565b611ae48185611a7a565b9350611aef83611a8b565b8060005b83811015611b20578151611b078882611aaa565b9750611b1283611ac2565b925050600181019050611af3565b5085935050505092915050565b600081519050919050565b600082825260208201905092915050565b6000819050602082019050919050565b600082825260208201905092915050565b6000611b7582611722565b611b7f8185611b59565b9350611b8f81856020860161173e565b611b9881611768565b840191505092915050565b6000611baf8383611b6a565b905092915050565b6000602082019050919050565b6000611bcf82611b2d565b611bd98185611b38565b935083602082028501611beb85611b49565b8060005b85811015611c275784840389528151611c088582611ba3565b9450611c1383611bb7565b925060208a01995050600181019050611bef565b50829750879550505050505092915050565b60006040820190508181036000830152611c538185611acf565b90508181036020830152611c678184611bc4565b90509392505050565b600067ffffffffffffffff821115611c8b57611c8a611814565b5b611c9482611768565b9050602081019050919050565b6000611cb4611caf84611c70565b611874565b905082815260208101848484011115611cd057611ccf61180f565b5b611cdb8482856118c0565b509392505050565b600082601f830112611cf857611cf761180a565b5b8135611d08848260208601611ca1565b91505092915050565b60008060408385031215611d2857611d2761168d565b5b6000611d36858286016116e0565b925050602083013567ffffffffffffffff811115611d5757611d56611692565b5b611d6385828601611ce3565b9150509250929050565b60008115159050919050565b611d8281611d6d565b82525050565b6000602082019050611d9d6000830184611d79565b92915050565b611dac816116b7565b82525050565b6000602082019050611dc76000830184611da3565b92915050565b60008060008060808587031215611de757611de661168d565b5b6000611df5878288016116e0565b9450506020611e06878288016117f5565b9350506040611e17878288016116e0565b9250506060611e28878288016117f5565b91505092959194509250565b600060c082019050611e496000830189611da3565b611e566020830188611da3565b611e636040830187611a45565b611e706060830186611da3565b611e7d6080830185611a45565b611e8a60a0830184611d79565b979650505050505050565b7f4e487b7100000000000000000000000000000000000000000000000000000000600052602260045260246000fd5b60006002820490506001821680611edc57607f821691505b602082108103611eef57611eee611e95565b5b50919050565b7f6e6f7420696e20616c6c6f776c69737400000000000000000000000000000000600082015250565b6000611f2b60108361172d565b9150611f3682611ef5565b602082019050919050565b60006020820190508181036000830152611f5a81611f1e565b9050919050565b60008190508160005260206000209050919050565b60006020601f8301049050919050565b600082821b905092915050565b600060088302611fc37fffffffffffffffffffffffffffffffffffffffffffffffffffffffffffffffff82611f86565b611fcd8683611f86565b95508019841693508086168417925050509392505050565b6000819050919050565b600061200a612005612000846117d4565b611fe5565b6117d4565b9050919050565b6000819050919050565b61202483611fef565b61203861203082612011565b848454611f93565b825550505050565b600090565b61204d612040565b61205881848461201b565b505050565b5b8181101561207c57612071600082612045565b60018101905061205e565b5050565b601f8211156120c15761209281611f61565b61209b84611f76565b810160208510156120aa578190505b6120be6120b685611f76565b83018261205d565b50505b505050565b600082821c905092915050565b60006120e4600019846008026120c6565b1980831691505092915050565b60006120fd83836120d3565b9150826002028217905092915050565b61211682611722565b67ffffffffffffffff81111561212f5761212e611814565b5b6121398254611ec4565b612144828285612080565b600060209050601f8311600181146121775760008415612165578287015190505b61216f85826120f1565b8655506121d7565b601f19841661218586611f61565b60005b828110156121ad57848901518255600182019150602085019450602081019050612188565b868310156121ca57848901516121c6601f8916826120d3565b8355505b6001600288020188555050505b505050505050565b7f4e487b7100000000000000000000000000000000000000000000000000000000600052603260045260246000fd5b7f4e487b7100000000000000000000000000000000000000000000000000000000600052601160045260246000fd5b6000612248826117d4565b9150612253836117d4565b925082820390508181111561226b5761226a61220e565b5b92915050565b7f4e487b7100000000000000000000000000000000000000000000000000000000600052603160045260246000fd5b50565b60006122b060008361172d565b91506122bb826122a0565b600082019050919050565b60006040820190506122db6000830184611d79565b81810360208301526122ec816122a3565b905092915050565b7f6e6f742061637469766500000000000000000000000000000000000000000000600082015250565b600061232a600a8361172d565b9150612335826122f4565b602082019050919050565b600060208201905081810360008301526123598161231d565b9050919050565b60006060820190506123756000830186611da3565b6123826020830185611da3565b61238f6040830184611a45565b949350505050565b7f7a65726f00000000000000000000000000000000000000000000000000000000600082015250565b60006123cd60048361172d565b91506123d882612397565b602082019050919050565b600060208201905081810360008301526123fc816123c0565b9050919050565b60006040820190506124186000830185611d79565b818103602083015261242a8184611779565b90509392505050565b7f6e6f742070726f706f7365720000000000000000000000000000000000000000600082015250565b6000612469600c8361172d565b915061247482612433565b602082019050919050565b600060208201905081810360008301526124988161245c565b9050919050565b7f70726f706f736572204e4654206e6f7420616c6c6f7765640000000000000000600082015250565b60006124d560188361172d565b91506124e08261249f565b602082019050919050565b60006020820190508181036000830152612504816124c8565b9050919050565b7f746172676574204e4654206e6f7420616c6c6f77656400000000000000000000600082015250565b600061254160168361172d565b915061254c8261250b565b602082019050919050565b6000602082019050818103600083015261257081612534565b9050919050565b6000612582826117d4565b91507fffffffffffffffffffffffffffffffffffffffffffffffffffffffffffffffff82036125b4576125b361220e565b5b600182019050919050565b7f4f776e61626c653a206e6577206f776e657220697320746865207a65726f206160008201527f6464726573730000000000000000000000000000000000000000000000000000602082015250565b600061261b60268361172d565b9150612626826125bf565b604082019050919050565b6000602082019050818103600083015261264a8161260e565b9050919050565b7f4f776e61626c653a2063616c6c6572206973206e6f7420746865206f776e6572600082015250565b600061268760208361172d565b915061269282612651565b602082019050919050565b600060208201905081810360008301526126b68161267a565b9050919050565b7f5265656e7472616e637947756172643a207265656e7472616e742063616c6c00600082015250565b60006126f3601f8361172d565b91506126fe826126bd565b602082019050919050565b60006020820190508181036000830152612722816126e6565b905091905056fea2646970667358221220271d4cb48041daec1b3c4c15cb8efdbc9a6d3cf0b7867ef18df8bce23433f47764736f6c63430008180033",
  "linkReferences": {},
  "deployedLinkReferences": {}
}