{
  "_format": "hh-sol-artifact-1",
  "contractName": "NftTokenSwapAllowlist",
  "sourceName": "contracts/NftTokenSwapAllowlist.sol",
  "abi": [
    {
      "inputs": [
        {
          "internalType": "address[]",
          "name": "initialAllowlist",
          "type": "address[]"
        },
        {
          "internalType": "string[]",
          "name": "names",
          "type": "string[]"
        }
      ],
      "stateMutability": "nonpayable",
      "type": "constructor"
    },
    {
      "anonymous": false,
      "inputs": [
        {
          "indexed": true,
          "internalType": "address",
          "name": "collection",
          "type": "address"
        },
        {
          "indexed": false,
          "internalType": "bool",
          "name": "allowed",
          "type": "bool"
        },
        {
          "indexed": false,
          "internalType": "string",
          "name": "name",
          "type": "string"
        }
      ],
      "name": "AllowedCollectionUpdated",
      "type": "event"
    },
    {
      "anonymous": false,
      "inputs": [
        {
          "indexed": true,
          "internalType": "uint256",
          "name": "id",
          "type": "uint256"
        },
        {
          "indexed": true,
          "internalType": "address",
          "name": "who",
          "type": "address"
        }
      ],
      "name": "Deposited",
      "type": "event"
    },
    {
      "anonymous": false,
      "inputs": [
        {
          "indexed": true,
          "internalType": "address",
          "name": "previousOwner",
          "type": "address"
        },
        {
          "indexed": true,
          "internalType": "address",
          "name": "newOwner",
          "type": "address"
        }
      ],
      "name": "OwnershipTransferred",
      "type": "event"
    },
    {
      "anonymous": false,
      "inputs": [
        {
          "indexed": true,
          "internalType": "uint256",
          "name": "id",
          "type": "uint256"
        }
      ],
      "name": "SwapCancelled",
      "type": "event"
    },
    {
      "anonymous": false,
      "inputs": [
        {
          "indexed": true,
          "internalType": "uint256",
          "name": "id",
          "type": "uint256"
        }
      ],
      "name": "SwapCompleted",
      "type": "event"
    },
    {
      "anonymous": false,
      "inputs": [
        {
          "indexed": true,
          "internalType": "uint256",
          "name": "id",
          "type": "uint256"
        },
        {
          "indexed": true,
          "internalType": "address",
          "name": "party1",
          "type": "address"
        },
        {
          "indexed": true,
          "internalType": "address",
          "name": "party2",
          "type": "address"
        }
      ],
      "name": "SwapCreated",
      "type": "event"
    },
    {
      "anonymous": false,
      "inputs": [
        {
          "indexed": true,
          "internalType": "uint256",
          "name": "id",
          "type": "uint256"
        }
      ],
      "name": "SwapDeclined",
      "type": "event"
    },
    {
      "anonymous": false,
      "inputs": [
        {
          "indexed": true,
          "internalType": "uint256",
          "name": "id",
          "type": "uint256"
        }
      ],
      "name": "SwapExpired",
      "type": "event"
    },
    {
      "inputs": [
        {
          "internalType": "address",
          "name": "collection",
          "type": "address"
        },
        {
          "internalType": "string",
          "name": "name",
          "type": "string"
        }
      ],
      "name": "addAllowedCollection",
      "outputs": [],
      "stateMutability": "nonpayable",
      "type": "function"
    },
    {
      "inputs": [
        {
          "internalType": "address",
          "name": "",
          "type": "address"
        }
      ],
      "name": "allowedCollection",
      "outputs": [
        {
          "internalType": "bool",
          "name": "",
          "type": "bool"
        }
      ],
      "stateMutability": "view",
      "type": "function"
    },
    {
      "inputs": [
        {
          "internalType": "uint256",
          "name": "",
          "type": "uint256"
        }
      ],
      "name": "allowedCollectionsList",
      "outputs": [
        {
          "internalType": "address",
          "name": "",
          "type": "address"
        }
      ],
      "stateMutability": "view",
      "type": "function"
    },
    {
      "inputs": [
        {
          "internalType": "address",
          "name": "_party2",
          "type": "address"
        },
        {
          "internalType": "address",
          "name": "_nft1",
          "type": "address"
        },
        {
          "internalType": "uint256",
          "name": "_tokenId1",
          "type": "uint256"
        },
        {
          "internalType": "address",
          "name": "_token1",
          "type": "address"
        },
        {
          "internalType": "uint256",
          "name": "_amount1",
          "type": "uint256"
        },
        {
          "internalType": "address",
          "name": "_nft2",
          "type": "address"
        },
        {
          "internalType": "uint256",
          "name": "_tokenId2",
          "type": "uint256"
        },
        {
          "internalType": "address",
          "name": "_token2",
          "type": "address"
        },
        {
          "internalType": "uint256",
          "name": "_amount2",
          "type": "uint256"
        },
        {
          "internalType": "uint64",
          "name": "_expiry",
          "type": "uint64"
        }
      ],
      "name": "createSwap",
      "outputs": [
        {
          "internalType": "uint256",
          "name": "",
          "type": "uint256"
        }
      ],
      "stateMutability": "nonpayable",
      "type": "function"
    },
    {
      "inputs": [
        {
          "internalType": "uint256",
          "name": "id",
          "type": "uint256"
        },
        {
          "internalType": "bool",
          "name": "depositNft",
          "type": "bool"
        },
        {
          "internalType": "bool",
          "name": "depositToken",
          "type": "bool"
        }
      ],
      "name": "deposit",
      "outputs": [],
      "stateMutability": "nonpayable",
      "type": "function"
    },
    {
      "inputs": [],
      "name": "getAllowedCollections",
      "outputs": [
        {
          "internalType": "address[]",
          "name": "",
          "type": "address[]"
        },
        {
          "internalType": "string[]",
          "name": "",
          "type": "string[]"
        }
      ],
      "stateMutability": "view",
      "type": "function"
    },
    {
      "inputs": [
        {
          "internalType": "address",
          "name": "",
          "type": "address"
        }
      ],
      "name": "nftNames",
      "outputs": [
        {
          "internalType": "string",
          "name": "",
          "type": "string"
        }
      ],
      "stateMutability": "view",
      "type": "function"
    },
    {
      "inputs": [
        {
          "internalType": "address",
          "name": "",
          "type": "address"
        },
        {
          "internalType": "address",
          "name": "",
          "type": "address"
        },
        {
          "internalType": "uint256",
          "name": "",
          "type": "uint256"
        },
        {
          "internalType": "bytes",
          "name": "",
          "type": "bytes"
        }
      ],
      "name": "onERC721Received",
      "outputs": [
        {
          "internalType": "bytes4",
          "name": "",
          "type": "bytes4"
        }
      ],
      "stateMutability": "nonpayable",
      "type": "function"
    },
    {
      "inputs": [],
      "name": "owner",
      "outputs": [
        {
          "internalType": "address",
          "name": "",
          "type": "address"
        }
      ],
      "stateMutability": "view",
      "type": "function"
    },
    {
      "inputs": [
        {
          "internalType": "address",
          "name": "collection",
          "type": "address"
        }
      ],
      "name": "removeAllowedCollection",
      "outputs": [],
      "stateMutability": "nonpayable",
      "type": "function"
    },
    {
      "inputs": [],
      "name": "renounceOwnership",
      "outputs": [],
      "stateMutability": "nonpayable",
      "type": "function"
    },
    {
      "inputs": [],
      "name": "swapCount",
      "outputs": [
        {
          "internalType": "uint256",
          "name": "",
          "type": "uint256"
        }
      ],
      "stateMutability": "view",
      "type": "function"
    },
    {
      "inputs": [
        {
          "internalType": "uint256",
          "name": "",
          "type": "uint256"
        }
      ],
      "name": "swaps",
      "outputs": [
        {
          "internalType": "address",
          "name": "party1",
          "type": "address"
        },
        {
          "internalType": "address",
          "name": "party2",
          "type": "address"
        },
        {
          "components": [
            {
              "internalType": "address",
              "name": "nft",
              "type": "address"
            },
            {
              "internalType": "uint256",
              "name": "tokenId",
              "type": "uint256"
            },
            {
              "internalType": "address",
              "name": "token",
              "type": "address"
            },
            {
              "internalType": "uint256",
              "name": "amount",
              "type": "uint256"
            }
          ],
          "internalType": "struct NftTokenSwapAllowlist.Side",
          "name": "side1",
          "type": "tuple"
        },
        {
          "components": [
            {
              "internalType": "address",
              "name": "nft",
              "type": "address"
            },
            {
              "internalType": "uint256",
              "name": "tokenId",
              "type": "uint256"
            },
            {
              "internalType": "address",
              "name": "token",
              "type": "address"
            },
            {
              "internalType": "uint256",
              "name": "amount",
              "type": "uint256"
            }
          ],
          "internalType": "struct NftTokenSwapAllowlist.Side",
          "name": "side2",
          "type": "tuple"
        },
        {
          "internalType": "enum NftTokenSwapAllowlist.Status",
          "name": "status",
          "type": "uint8"
        },
        {
          "internalType": "uint64",
          "name": "expiry",
          "type": "uint64"
        },
        {
          "internalType": "bool",
          "name": "party1Deposited",
          "type": "bool"
        },
        {
          "internalType": "bool",
          "name": "party2Deposited",
          "type": "bool"
        }
      ],
      "stateMutability": "view",
      "type": "function"
    },
    {
      "inputs": [
        {
          "internalType": "address",
          "name": "newOwner",
          "type": "address"
        }
      ],
      "name": "transferOwnership",
      "outputs": [],
      "stateMutability": "nonpayable",
      "type": "function"
    }
  ],
  "bytecode": "0x60806040523480156200001157600080fd5b506040516200450a3803806200450a833981810160405281019062000037919062000791565b620000576200004b620002fb60201b60201c565b6200030360201b60201c565b600180819055508051825114620000a5576040517f08c379a00000000000000000000000000000000000000000000000000000000081526004016200009c9062000877565b60405180910390fd5b60005b8251811015620002f2576000838281518110620000ca57620000c962000899565b5b602002602001015190506000838381518110620000ec57620000eb62000899565b5b60200260200101519050600073ffffffffffffffffffffffffffffffffffffffff168273ffffffffffffffffffffffffffffffffffffffff16141580156200017e5750600460008373ffffffffffffffffffffffffffffffffffffffff1673ffffffffffffffffffffffffffffffffffffffff16815260200190815260200160002060009054906101000a900460ff16155b15620002e2576001600460008473ffffffffffffffffffffffffffffffffffffffff1673ffffffffffffffffffffffffffffffffffffffff16815260200190815260200160002060006101000a81548160ff02191690831515021790555080600560008473ffffffffffffffffffffffffffffffffffffffff1673ffffffffffffffffffffffffffffffffffffffff16815260200190815260200160002090816200022a919062000b13565b506006829080600181540180825580915050600190039060005260206000200160009091909190916101000a81548173ffffffffffffffffffffffffffffffffffffffff021916908373ffffffffffffffffffffffffffffffffffffffff1602179055508173ffffffffffffffffffffffffffffffffffffffff167f6f0b6317be8f477e3348e24d06c664bc22c336294e277e02640338e173ad9ad2600183604051620002d992919062000c58565b60405180910390a25b50508080600101915050620000a8565b50505062000c8c565b600033905090565b60008060009054906101000a900473ffffffffffffffffffffffffffffffffffffffff169050816000806101000a81548173ffffffffffffffffffffffffffffffffffffffff021916908373ffffffffffffffffffffffffffffffffffffffff1602179055508173ffffffffffffffffffffffffffffffffffffffff168173ffffffffffffffffffffffffffffffffffffffff167f8be0079c531659141344cd1fd0a4f28419497f9722a3daafe3b4186f6b6457e060405160405180910390a35050565b6000604051905090565b600080fd5b600080fd5b600080fd5b6000601f19601f8301169050919050565b7f4e487b7100000000000000000000000000000000000000000000000000000000600052604160045260246000fd5b6200042b82620003e0565b810181811067ffffffffffffffff821117156200044d576200044c620003f1565b5b80604052505050565b600062000462620003c7565b905062000470828262000420565b919050565b600067ffffffffffffffff821115620004935762000492620003f1565b5b602082029050602081019050919050565b600080fd5b600073ffffffffffffffffffffffffffffffffffffffff82169050919050565b6000620004d682620004a9565b9050919050565b620004e881620004c9565b8114620004f457600080fd5b50565b6000815190506200050881620004dd565b92915050565b6000620005256200051f8462000475565b62000456565b905080838252602082019050602084028301858111156200054b576200054a620004a4565b5b835b81811015620005785780620005638882620004f7565b8452602084019350506020810190506200054d565b5050509392505050565b600082601f8301126200059a5762000599620003db565b5b8151620005ac8482602086016200050e565b91505092915050565b600067ffffffffffffffff821115620005d357620005d2620003f1565b5b602082029050602081019050919050565b600080fd5b600067ffffffffffffffff821115620006075762000606620003f1565b5b6200061282620003e0565b9050602081019050919050565b60005b838110156200063f57808201518184015260208101905062000622565b60008484015250505050565b6000620006626200065c84620005e9565b62000456565b905082815260208101848484011115620006815762000680620005e4565b5b6200068e8482856200061f565b509392505050565b600082601f830112620006ae57620006ad620003db565b5b8151620006c08482602086016200064b565b91505092915050565b6000620006e0620006da84620005b5565b62000456565b90508083825260208201905060208402830185811115620007065762000705620004a4565b5b835b818110156200075457805167ffffffffffffffff8111156200072f576200072e620003db565b5b8086016200073e898262000696565b8552602085019450505060208101905062000708565b5050509392505050565b600082601f830112620007765762000775620003db565b5b815162000788848260208601620006c9565b91505092915050565b60008060408385031215620007ab57620007aa620003d1565b5b600083015167ffffffffffffffff811115620007cc57620007cb620003d6565b5b620007da8582860162000582565b925050602083015167ffffffffffffffff811115620007fe57620007fd620003d6565b5b6200080c858286016200075e565b9150509250929050565b600082825260208201905092915050565b7f6c656e677468206d69736d617463680000000000000000000000000000000000600082015250565b60006200085f600f8362000816565b91506200086c8262000827565b602082019050919050565b60006020820190508181036000830152620008928162000850565b9050919050565b7f4e487b7100000000000000000000000000000000000000000000000000000000600052603260045260246000fd5b600081519050919050565b7f4e487b7100000000000000000000000000000000000000000000000000000000600052602260045260246000fd5b600060028204905060018216806200091b57607f821691505b602082108103620009315762000930620008d3565b5b50919050565b60008190508160005260206000209050919050565b60006020601f8301049050919050565b600082821b905092915050565b6000600883026200099b7fffffffffffffffffffffffffffffffffffffffffffffffffffffffffffffffff826200095c565b620009a786836200095c565b95508019841693508086168417925050509392505050565b6000819050919050565b6000819050919050565b6000620009f4620009ee620009e884620009bf565b620009c9565b620009bf565b9050919050565b6000819050919050565b62000a1083620009d3565b62000a2862000a1f82620009fb565b84845462000969565b825550505050565b600090565b62000a3f62000a30565b62000a4c81848462000a05565b505050565b5b8181101562000a745762000a6860008262000a35565b60018101905062000a52565b5050565b601f82111562000ac35762000a8d8162000937565b62000a98846200094c565b8101602085101562000aa8578190505b62000ac062000ab7856200094c565b83018262000a51565b50505b505050565b600082821c905092915050565b600062000ae86000198460080262000ac8565b1980831691505092915050565b600062000b03838362000ad5565b9150826002028217905092915050565b62000b1e82620008c8565b67ffffffffffffffff81111562000b3a5762000b39620003f1565b5b62000b46825462000902565b62000b5382828562000a78565b600060209050601f83116001811462000b8b576000841562000b76578287015190505b62000b82858262000af5565b86555062000bf2565b601f19841662000b9b8662000937565b60005b8281101562000bc55784890151825560018201915060208501945060208101905062000b9e565b8683101562000be5578489015162000be1601f89168262000ad5565b8355505b6001600288020188555050505b505050505050565b60008115159050919050565b62000c118162000bfa565b82525050565b600062000c2482620008c8565b62000c30818562000816565b935062000c428185602086016200061f565b62000c4d81620003e0565b840191505092915050565b600060408201905062000c6f600083018562000c06565b818103602083015262000c83818462000c17565b90509392505050565b61386e8062000c9c6000396000f3fe608060405234801561001057600080fd5b50600436106100ea5760003560e01c8063715018a61161008c5780638da5cb5b116100665780638da5cb5b1461025e57806395fb5f831461027c578063f09c582914610298578063f2fde38b146102cf576100ea565b8063715018a6146101f45780637521f65b146101fe5780637e2257711461022e576100ea565b80631a0c7824116100c85780631a0c78241461016b5780632eff0d9e1461019b5780633a51f383146101b95780634bd61f84146101d8576100ea565b806305fec8a3146100ef578063150b7a021461011f57806315acf41e1461014f575b600080fd5b6101096004803603810190610104919061233b565b6102eb565b60405161011691906123f8565b60405180910390f35b61013960048036038101906101349190612585565b61038b565b6040516101469190612643565b60405180910390f35b6101696004803603810190610164919061233b565b61039f565b005b6101856004803603810190610180919061269e565b6106c1565b604051610192919061278c565b60405180910390f35b6101a3610f04565b6040516101b0919061278c565b60405180910390f35b6101c1610f0a565b6040516101cf929190612971565b60405180910390f35b6101f260048036038101906101ed9190612a49565b61113a565b005b6101fc611360565b005b6102186004803603810190610213919061233b565b611374565b6040516102259190612ac0565b60405180910390f35b61024860048036038101906102439190612adb565b611394565b6040516102559190612b17565b60405180910390f35b6102666113d3565b6040516102739190612b17565b60405180910390f35b61029660048036038101906102919190612b5e565b6113fc565b005b6102b260048036038101906102ad9190612adb565b6116fc565b6040516102c6989796959493929190612c9b565b60405180910390f35b6102e960048036038101906102e4919061233b565b611953565b005b6005602052806000526040600020600091509050805461030a90612d4c565b80601f016020809104026020016040519081016040528092919081815260200182805461033690612d4c565b80156103835780601f1061035857610100808354040283529160200191610383565b820191906000526020600020905b81548152906001019060200180831161036657829003601f168201915b505050505081565b600063150b7a0260e01b9050949350505050565b6103a76119d6565b600460008273ffffffffffffffffffffffffffffffffffffffff1673ffffffffffffffffffffffffffffffffffffffff16815260200190815260200160002060009054906101000a900460ff16610433576040517f08c379a000000000000000000000000000000000000000000000000000000000815260040161042a90612dc9565b60405180910390fd5b6000600460008373ffffffffffffffffffffffffffffffffffffffff1673ffffffffffffffffffffffffffffffffffffffff16815260200190815260200160002060006101000a81548160ff02191690831515021790555060405180602001604052806000815250600560008373ffffffffffffffffffffffffffffffffffffffff1673ffffffffffffffffffffffffffffffffffffffff16815260200190815260200160002090816104e69190612f95565b506000600680549050905060005b8181101561066d578273ffffffffffffffffffffffffffffffffffffffff166006828154811061052757610526613067565b5b9060005260206000200160009054906101000a900473ffffffffffffffffffffffffffffffffffffffff1673ffffffffffffffffffffffffffffffffffffffff160361066057600660018361057c91906130c5565b8154811061058d5761058c613067565b5b9060005260206000200160009054906101000a900473ffffffffffffffffffffffffffffffffffffffff16600682815481106105cc576105cb613067565b5b9060005260206000200160006101000a81548173ffffffffffffffffffffffffffffffffffffffff021916908373ffffffffffffffffffffffffffffffffffffffff1602179055506006805480610626576106256130f9565b5b6001900381819060005260206000200160006101000a81549073ffffffffffffffffffffffffffffffffffffffff0219169055905561066d565b80806001019150506104f4565b508173ffffffffffffffffffffffffffffffffffffffff167f6f0b6317be8f477e3348e24d06c664bc22c336294e277e02640338e173ad9ad260006040516106b5919061314e565b60405180910390a25050565b60006106cb611a54565b600073ffffffffffffffffffffffffffffffffffffffff168b73ffffffffffffffffffffffffffffffffffffffff160361073a576040517f08c379a0000000000000000000000000000000000000000000000000000000008152600401610731906131c8565b60405180910390fd5b600073ffffffffffffffffffffffffffffffffffffffff168a73ffffffffffffffffffffffffffffffffffffffff161415806107a35750600073ffffffffffffffffffffffffffffffffffffffff168873ffffffffffffffffffffffffffffffffffffffff1614155b6107e2576040517f08c379a00000000000000000000000000000000000000000000000000000000081526004016107d990613234565b60405180910390fd5b600073ffffffffffffffffffffffffffffffffffffffff168673ffffffffffffffffffffffffffffffffffffffff1614158061084b5750600073ffffffffffffffffffffffffffffffffffffffff168473ffffffffffffffffffffffffffffffffffffffff1614155b61088a576040517f08c379a0000000000000000000000000000000000000000000000000000000008152600401610881906132a0565b60405180910390fd5b600073ffffffffffffffffffffffffffffffffffffffff168a73ffffffffffffffffffffffffffffffffffffffff161480156108f25750600073ffffffffffffffffffffffffffffffffffffffff168673ffffffffffffffffffffffffffffffffffffffff16145b15610932576040517f08c379a00000000000000000000000000000000000000000000000000000000081526004016109299061330c565b60405180910390fd5b600073ffffffffffffffffffffffffffffffffffffffff168a73ffffffffffffffffffffffffffffffffffffffff16146109f357600460008b73ffffffffffffffffffffffffffffffffffffffff1673ffffffffffffffffffffffffffffffffffffffff16815260200190815260200160002060009054906101000a900460ff166109f2576040517f08c379a00000000000000000000000000000000000000000000000000000000081526004016109e990613378565b60405180910390fd5b5b600073ffffffffffffffffffffffffffffffffffffffff168673ffffffffffffffffffffffffffffffffffffffff1614610ab457600460008773ffffffffffffffffffffffffffffffffffffffff1673ffffffffffffffffffffffffffffffffffffffff16815260200190815260200160002060009054906101000a900460ff16610ab3576040517f08c379a0000000000000000000000000000000000000000000000000000000008152600401610aaa906133e4565b60405180910390fd5b5b60026000815480929190610ac790613404565b91905055506040518061010001604052803373ffffffffffffffffffffffffffffffffffffffff1681526020018c73ffffffffffffffffffffffffffffffffffffffff16815260200160405180608001604052808d73ffffffffffffffffffffffffffffffffffffffff1681526020018c81526020018b73ffffffffffffffffffffffffffffffffffffffff1681526020018a815250815260200160405180608001604052808973ffffffffffffffffffffffffffffffffffffffff1681526020018881526020018773ffffffffffffffffffffffffffffffffffffffff16815260200186815250815260200160006003811115610bc857610bc7612c15565b5b81526020018367ffffffffffffffff1681526020016000151581526020016000151581525060036000600254815260200190815260200160002060008201518160000160006101000a81548173ffffffffffffffffffffffffffffffffffffffff021916908373ffffffffffffffffffffffffffffffffffffffff16021790555060208201518160010160006101000a81548173ffffffffffffffffffffffffffffffffffffffff021916908373ffffffffffffffffffffffffffffffffffffffff16021790555060408201518160020160008201518160000160006101000a81548173ffffffffffffffffffffffffffffffffffffffff021916908373ffffffffffffffffffffffffffffffffffffffff1602179055506020820151816001015560408201518160020160006101000a81548173ffffffffffffffffffffffffffffffffffffffff021916908373ffffffffffffffffffffffffffffffffffffffff16021790555060608201518160030155505060608201518160060160008201518160000160006101000a81548173ffffffffffffffffffffffffffffffffffffffff021916908373ffffffffffffffffffffffffffffffffffffffff1602179055506020820151816001015560408201518160020160006101000a81548173ffffffffffffffffffffffffffffffffffffffff021916908373ffffffffffffffffffffffffffffffffffffffff160217905550606082015181600301555050608082015181600a0160006101000a81548160ff02191690836003811115610e1557610e14612c15565b5b021790555060a082015181600a0160016101000a81548167ffffffffffffffff021916908367ffffffffffffffff16021790555060c082015181600a0160096101000a81548160ff02191690831515021790555060e082015181600a01600a6101000a81548160ff0219169083151502179055509050508a73ffffffffffffffffffffffffffffffffffffffff163373ffffffffffffffffffffffffffffffffffffffff166002547f3aac258f17a492cc33fefd5baf2537a4c279fa275b8f98eae89985d2f2af710960405160405180910390a46002549050610ef6611aa3565b9a9950505050505050505050565b60025481565b606080600060068054905067ffffffffffffffff811115610f2e57610f2d61245a565b5b604051908082528060200260200182016040528015610f6157816020015b6060815260200190600190039081610f4c5790505b50905060005b6006805490508110156110a5576005600060068381548110610f8c57610f8b613067565b5b9060005260206000200160009054906101000a900473ffffffffffffffffffffffffffffffffffffffff1673ffffffffffffffffffffffffffffffffffffffff1673ffffffffffffffffffffffffffffffffffffffff1681526020019081526020016000208054610ffc90612d4c565b80601f016020809104026020016040519081016040528092919081815260200182805461102890612d4c565b80156110755780601f1061104a57610100808354040283529160200191611075565b820191906000526020600020905b81548152906001019060200180831161105857829003601f168201915b505050505082828151811061108d5761108c613067565b5b60200260200101819052508080600101915050610f67565b506006818180548060200260200160405190810160405280929190818152602001828054801561112a57602002820191906000526020600020905b8160009054906101000a900473ffffffffffffffffffffffffffffffffffffffff1673ffffffffffffffffffffffffffffffffffffffff16815260200190600101908083116110e0575b5050505050915092509250509091565b6111426119d6565b600073ffffffffffffffffffffffffffffffffffffffff168273ffffffffffffffffffffffffffffffffffffffff16036111b1576040517f08c379a00000000000000000000000000000000000000000000000000000000081526004016111a890613498565b60405180910390fd5b600460008373ffffffffffffffffffffffffffffffffffffffff1673ffffffffffffffffffffffffffffffffffffffff16815260200190815260200160002060009054906101000a900460ff1661135c576001600460008473ffffffffffffffffffffffffffffffffffffffff1673ffffffffffffffffffffffffffffffffffffffff16815260200190815260200160002060006101000a81548160ff02191690831515021790555080600560008473ffffffffffffffffffffffffffffffffffffffff1673ffffffffffffffffffffffffffffffffffffffff16815260200190815260200160002090816112a69190612f95565b506006829080600181540180825580915050600190039060005260206000200160009091909190916101000a81548173ffffffffffffffffffffffffffffffffffffffff021916908373ffffffffffffffffffffffffffffffffffffffff1602179055508173ffffffffffffffffffffffffffffffffffffffff167f6f0b6317be8f477e3348e24d06c664bc22c336294e277e02640338e173ad9ad26001836040516113539291906134b8565b60405180910390a25b5050565b6113686119d6565b6113726000611aac565b565b60046020528060005260406000206000915054906101000a900460ff1681565b600681815481106113a457600080fd5b906000526020600020016000915054906101000a900473ffffffffffffffffffffffffffffffffffffffff1681565b60008060009054906101000a900473ffffffffffffffffffffffffffffffffffffffff16905090565b611404611a54565b60006003600085815260200190815260200160002090506000600381111561142f5761142e612c15565b5b81600a0160009054906101000a900460ff16600381111561145357611452612c15565b5b14611493576040517f08c379a000000000000000000000000000000000000000000000000000000000815260040161148a90613534565b60405180910390fd5b600081600a0160019054906101000a900467ffffffffffffffff1667ffffffffffffffff16146115235780600a0160019054906101000a900467ffffffffffffffff1667ffffffffffffffff16421115611522576040517f08c379a0000000000000000000000000000000000000000000000000000000008152600401611519906135a0565b60405180910390fd5b5b8060000160009054906101000a900473ffffffffffffffffffffffffffffffffffffffff1673ffffffffffffffffffffffffffffffffffffffff163373ffffffffffffffffffffffffffffffffffffffff16036115ab5761158981600201338585611b70565b600181600a0160096101000a81548160ff02191690831515021790555061166f565b8060010160009054906101000a900473ffffffffffffffffffffffffffffffffffffffff1673ffffffffffffffffffffffffffffffffffffffff163373ffffffffffffffffffffffffffffffffffffffff16036116335761161181600601338585611b70565b600181600a01600a6101000a81548160ff02191690831515021790555061166e565b6040517f08c379a00000000000000000000000000000000000000000000000000000000081526004016116659061360c565b60405180910390fd5b5b3373ffffffffffffffffffffffffffffffffffffffff16847f21d3f238b5a9e25ffc48b8320bc1d58882b1d90d0b4fcc7ba9707e3aebfedf1660405160405180910390a380600a0160099054906101000a900460ff1680156116df575080600a01600a9054906101000a900460ff165b156116ee576116ed84611d8e565b5b506116f7611aa3565b505050565b60036020528060005260406000206000915090508060000160009054906101000a900473ffffffffffffffffffffffffffffffffffffffff16908060010160009054906101000a900473ffffffffffffffffffffffffffffffffffffffff1690806002016040518060800160405290816000820160009054906101000a900473ffffffffffffffffffffffffffffffffffffffff1673ffffffffffffffffffffffffffffffffffffffff1673ffffffffffffffffffffffffffffffffffffffff168152602001600182015481526020016002820160009054906101000a900473ffffffffffffffffffffffffffffffffffffffff1673ffffffffffffffffffffffffffffffffffffffff1673ffffffffffffffffffffffffffffffffffffffff16815260200160038201548152505090806006016040518060800160405290816000820160009054906101000a900473ffffffffffffffffffffffffffffffffffffffff1673ffffffffffffffffffffffffffffffffffffffff1673ffffffffffffffffffffffffffffffffffffffff168152602001600182015481526020016002820160009054906101000a900473ffffffffffffffffffffffffffffffffffffffff1673ffffffffffffffffffffffffffffffffffffffff1673ffffffffffffffffffffffffffffffffffffffff1681526020016003820154815250509080600a0160009054906101000a900460ff169080600a0160019054906101000a900467ffffffffffffffff169080600a0160099054906101000a900460ff169080600a01600a9054906101000a900460ff16905088565b61195b6119d6565b600073ffffffffffffffffffffffffffffffffffffffff168173ffffffffffffffffffffffffffffffffffffffff16036119ca576040517f08c379a00000000000000000000000000000000000000000000000000000000081526004016119c19061369e565b60405180910390fd5b6119d381611aac565b50565b6119de6122c1565b73ffffffffffffffffffffffffffffffffffffffff166119fc6113d3565b73ffffffffffffffffffffffffffffffffffffffff1614611a52576040517f08c379a0000000000000000000000000000000000000000000000000000000008152600401611a499061370a565b60405180910390fd5b565b600260015403611a99576040517f08c379a0000000000000000000000000000000000000000000000000000000008152600401611a9090613776565b60405180910390fd5b6002600181905550565b60018081905550565b60008060009054906101000a900473ffffffffffffffffffffffffffffffffffffffff169050816000806101000a81548173ffffffffffffffffffffffffffffffffffffffff021916908373ffffffffffffffffffffffffffffffffffffffff1602179055508173ffffffffffffffffffffffffffffffffffffffff168173ffffffffffffffffffffffffffffffffffffffff167f8be0079c531659141344cd1fd0a4f28419497f9722a3daafe3b4186f6b6457e060405160405180910390a35050565b818015611bce5750600073ffffffffffffffffffffffffffffffffffffffff168460000160009054906101000a900473ffffffffffffffffffffffffffffffffffffffff1673ffffffffffffffffffffffffffffffffffffffff1614155b15611c6b578360000160009054906101000a900473ffffffffffffffffffffffffffffffffffffffff1673ffffffffffffffffffffffffffffffffffffffff166323b872dd843087600101546040518463ffffffff1660e01b8152600401611c3893929190613796565b600060405180830381600087803b158015611c5257600080fd5b505af1158015611c66573d6000803e3d6000fd5b505050505b808015611cc95750600073ffffffffffffffffffffffffffffffffffffffff168460020160009054906101000a900473ffffffffffffffffffffffffffffffffffffffff1673ffffffffffffffffffffffffffffffffffffffff1614155b8015611cd9575060008460030154115b15611d88578360020160009054906101000a900473ffffffffffffffffffffffffffffffffffffffff1673ffffffffffffffffffffffffffffffffffffffff166323b872dd843087600301546040518463ffffffff1660e01b8152600401611d4393929190613796565b6020604051808303816000875af1158015611d62573d6000803e3d6000fd5b505050506040513d601f19601f82011682018060405250810190611d8691906137e2565b505b50505050565b6000600360008381526020019081526020016000209050600073ffffffffffffffffffffffffffffffffffffffff168160020160000160009054906101000a900473ffffffffffffffffffffffffffffffffffffffff1673ffffffffffffffffffffffffffffffffffffffff1614611ec2578060020160000160009054906101000a900473ffffffffffffffffffffffffffffffffffffffff1673ffffffffffffffffffffffffffffffffffffffff166323b872dd308360010160009054906101000a900473ffffffffffffffffffffffffffffffffffffffff1684600201600101546040518463ffffffff1660e01b8152600401611e8f93929190613796565b600060405180830381600087803b158015611ea957600080fd5b505af1158015611ebd573d6000803e3d6000fd5b505050505b600073ffffffffffffffffffffffffffffffffffffffff168160020160020160009054906101000a900473ffffffffffffffffffffffffffffffffffffffff1673ffffffffffffffffffffffffffffffffffffffff1614158015611f2d575060008160020160030154115b15612004578060020160020160009054906101000a900473ffffffffffffffffffffffffffffffffffffffff1673ffffffffffffffffffffffffffffffffffffffff1663a9059cbb8260010160009054906101000a900473ffffffffffffffffffffffffffffffffffffffff1683600201600301546040518363ffffffff1660e01b8152600401611fbf92919061380f565b6020604051808303816000875af1158015611fde573d6000803e3d6000fd5b505050506040513d601f19601f8201168201806040525081019061200291906137e2565b505b600073ffffffffffffffffffffffffffffffffffffffff168160060160000160009054906101000a900473ffffffffffffffffffffffffffffffffffffffff1673ffffffffffffffffffffffffffffffffffffffff1614612121578060060160000160009054906101000a900473ffffffffffffffffffffffffffffffffffffffff1673ffffffffffffffffffffffffffffffffffffffff166323b872dd308360000160009054906101000a900473ffffffffffffffffffffffffffffffffffffffff1684600601600101546040518463ffffffff1660e01b81526004016120ee93929190613796565b600060405180830381600087803b15801561210857600080fd5b505af115801561211c573d6000803e3d6000fd5b505050505b600073ffffffffffffffffffffffffffffffffffffffff168160060160020160009054906101000a900473ffffffffffffffffffffffffffffffffffffffff1673ffffffffffffffffffffffffffffffffffffffff161415801561218c575060008160060160030154115b15612263578060060160020160009054906101000a900473ffffffffffffffffffffffffffffffffffffffff1673ffffffffffffffffffffffffffffffffffffffff1663a9059cbb8260000160009054906101000a900473ffffffffffffffffffffffffffffffffffffffff1683600601600301546040518363ffffffff1660e01b815260040161221e92919061380f565b6020604051808303816000875af115801561223d573d6000803e3d6000fd5b505050506040513d601f19601f8201168201806040525081019061226191906137e2565b505b600281600a0160006101000a81548160ff0219169083600381111561228b5761228a612c15565b5b0217905550817f02f857175b5562dc8e8fe1cc6d39215bf823a07a685f52fba82f1e637d41851360405160405180910390a25050565b600033905090565b6000604051905090565b600080fd5b600080fd5b600073ffffffffffffffffffffffffffffffffffffffff82169050919050565b6000612308826122dd565b9050919050565b612318816122fd565b811461232357600080fd5b50565b6000813590506123358161230f565b92915050565b600060208284031215612351576123506122d3565b5b600061235f84828501612326565b91505092915050565b600081519050919050565b600082825260208201905092915050565b60005b838110156123a2578082015181840152602081019050612387565b60008484015250505050565b6000601f19601f8301169050919050565b60006123ca82612368565b6123d48185612373565b93506123e4818560208601612384565b6123ed816123ae565b840191505092915050565b6000602082019050818103600083015261241281846123bf565b905092915050565b6000819050919050565b61242d8161241a565b811461243857600080fd5b50565b60008135905061244a81612424565b92915050565b600080fd5b600080fd5b7f4e487b7100000000000000000000000000000000000000000000000000000000600052604160045260246000fd5b612492826123ae565b810181811067ffffffffffffffff821117156124b1576124b061245a565b5b80604052505050565b60006124c46122c9565b90506124d08282612489565b919050565b600067ffffffffffffffff8211156124f0576124ef61245a565b5b6124f9826123ae565b9050602081019050919050565b82818337600083830152505050565b6000612528612523846124d5565b6124ba565b90508281526020810184848401111561254457612543612455565b5b61254f848285612506565b509392505050565b600082601f83011261256c5761256b612450565b5b813561257c848260208601612515565b91505092915050565b6000806000806080858703121561259f5761259e6122d3565b5b60006125ad87828801612326565b94505060206125be87828801612326565b93505060406125cf8782880161243b565b925050606085013567ffffffffffffffff8111156125f0576125ef6122d8565b5b6125fc87828801612557565b91505092959194509250565b60007fffffffff0000000000000000000000000000000000000000000000000000000082169050919050565b61263d81612608565b82525050565b60006020820190506126586000830184612634565b92915050565b600067ffffffffffffffff82169050919050565b61267b8161265e565b811461268657600080fd5b50565b60008135905061269881612672565b92915050565b6000806000806000806000806000806101408b8d0312156126c2576126c16122d3565b5b60006126d08d828e01612326565b9a505060206126e18d828e01612326565b99505060406126f28d828e0161243b565b98505060606127038d828e01612326565b97505060806127148d828e0161243b565b96505060a06127258d828e01612326565b95505060c06127368d828e0161243b565b94505060e06127478d828e01612326565b9350506101006127598d828e0161243b565b92505061012061276b8d828e01612689565b9150509295989b9194979a5092959850565b6127868161241a565b82525050565b60006020820190506127a1600083018461277d565b92915050565b600081519050919050565b600082825260208201905092915050565b6000819050602082019050919050565b6127dc816122fd565b82525050565b60006127ee83836127d3565b60208301905092915050565b6000602082019050919050565b6000612812826127a7565b61281c81856127b2565b9350612827836127c3565b8060005b8381101561285857815161283f88826127e2565b975061284a836127fa565b92505060018101905061282b565b5085935050505092915050565b600081519050919050565b600082825260208201905092915050565b6000819050602082019050919050565b600082825260208201905092915050565b60006128ad82612368565b6128b78185612891565b93506128c7818560208601612384565b6128d0816123ae565b840191505092915050565b60006128e783836128a2565b905092915050565b6000602082019050919050565b600061290782612865565b6129118185612870565b93508360208202850161292385612881565b8060005b8581101561295f578484038952815161294085826128db565b945061294b836128ef565b925060208a01995050600181019050612927565b50829750879550505050505092915050565b6000604082019050818103600083015261298b8185612807565b9050818103602083015261299f81846128fc565b90509392505050565b600067ffffffffffffffff8211156129c3576129c261245a565b5b6129cc826123ae565b9050602081019050919050565b60006129ec6129e7846129a8565b6124ba565b905082815260208101848484011115612a0857612a07612455565b5b612a13848285612506565b509392505050565b600082601f830112612a3057612a2f612450565b5b8135612a408482602086016129d9565b91505092915050565b60008060408385031215612a6057612a5f6122d3565b5b6000612a6e85828601612326565b925050602083013567ffffffffffffffff811115612a8f57612a8e6122d8565b5b612a9b85828601612a1b565b9150509250929050565b60008115159050919050565b612aba81612aa5565b82525050565b6000602082019050612ad56000830184612ab1565b92915050565b600060208284031215612af157612af06122d3565b5b6000612aff8482850161243b565b91505092915050565b612b11816122fd565b82525050565b6000602082019050612b2c6000830184612b08565b92915050565b612b3b81612aa5565b8114612b4657600080fd5b50565b600081359050612b5881612b32565b92915050565b600080600060608486031215612b7757612b766122d3565b5b6000612b858682870161243b565b9350506020612b9686828701612b49565b9250506040612ba786828701612b49565b9150509250925092565b612bba8161241a565b82525050565b608082016000820151612bd660008501826127d3565b506020820151612be96020850182612bb1565b506040820151612bfc60408501826127d3565b506060820151612c0f6060850182612bb1565b50505050565b7f4e487b7100000000000000000000000000000000000000000000000000000000600052602160045260246000fd5b60048110612c5557612c54612c15565b5b50565b6000819050612c6682612c44565b919050565b6000612c7682612c58565b9050919050565b612c8681612c6b565b82525050565b612c958161265e565b82525050565b60006101c082019050612cb1600083018b612b08565b612cbe602083018a612b08565b612ccb6040830189612bc0565b612cd860c0830188612bc0565b612ce6610140830187612c7d565b612cf4610160830186612c8c565b612d02610180830185612ab1565b612d106101a0830184612ab1565b9998505050505050505050565b7f4e487b7100000000000000000000000000000000000000000000000000000000600052602260045260246000fd5b60006002820490506001821680612d6457607f821691505b602082108103612d7757612d76612d1d565b5b50919050565b7f6e6f7420696e20616c6c6f776c69737400000000000000000000000000000000600082015250565b6000612db3601083612373565b9150612dbe82612d7d565b602082019050919050565b60006020820190508181036000830152612de281612da6565b9050919050565b60008190508160005260206000209050919050565b60006020601f8301049050919050565b600082821b905092915050565b600060088302612e4b7fffffffffffffffffffffffffffffffffffffffffffffffffffffffffffffffff82612e0e565b612e558683612e0e565b95508019841693508086168417925050509392505050565b6000819050919050565b6000612e92612e8d612e888461241a565b612e6d565b61241a565b9050919050565b6000819050919050565b612eac83612e77565b612ec0612eb882612e99565b848454612e1b565b825550505050565b600090565b612ed5612ec8565b612ee0818484612ea3565b505050565b5b81811015612f0457612ef9600082612ecd565b600181019050612ee6565b5050565b601f821115612f4957612f1a81612de9565b612f2384612dfe565b81016020851015612f32578190505b612f46612f3e85612dfe565b830182612ee5565b50505b505050565b600082821c905092915050565b6000612f6c60001984600802612f4e565b1980831691505092915050565b6000612f858383612f5b565b9150826002028217905092915050565b612f9e82612368565b67ffffffffffffffff811115612fb757612fb661245a565b5b612fc18254612d4c565b612fcc828285612f08565b600060209050601f831160018114612fff5760008415612fed578287015190505b612ff78582612f79565b86555061305f565b601f19841661300d86612de9565b60005b8281101561303557848901518255600182019150602085019450602081019050613010565b86831015613052578489015161304e601f891682612f5b565b8355505b6001600288020188555050505b505050505050565b7f4e487b7100000000000000000000000000000000000000000000000000000000600052603260045260246000fd5b7f4e487b7100000000000000000000000000000000000000000000000000000000600052601160045260246000fd5b60006130d08261241a565b91506130db8361241a565b92508282039050818111156130f3576130f2613096565b5b92915050565b7f4e487b7100000000000000000000000000000000000000000000000000000000600052603160045260246000fd5b50565b6000613138600083612373565b915061314382613128565b600082019050919050565b60006040820190506131636000830184612ab1565b81810360208301526131748161312b565b905092915050565b7f696e76616c696420636f756e7465727061727479000000000000000000000000600082015250565b60006131b2601483612373565b91506131bd8261317c565b602082019050919050565b600060208201905081810360008301526131e1816131a5565b9050919050565b7f70617274793120656d7074790000000000000000000000000000000000000000600082015250565b600061321e600c83612373565b9150613229826131e8565b602082019050919050565b6000602082019050818103600083015261324d81613211565b9050919050565b7f70617274793220656d7074790000000000000000000000000000000000000000600082015250565b600061328a600c83612373565b915061329582613254565b602082019050919050565b600060208201905081810360008301526132b98161327d565b9050919050565b7f746f6b656e3c2d3e746f6b656e206e6f7420737570706f727465640000000000600082015250565b60006132f6601b83612373565b9150613301826132c0565b602082019050919050565b60006020820190508181036000830152613325816132e9565b9050919050565b7f6e667431206e6f7420616c6c6f77656400000000000000000000000000000000600082015250565b6000613362601083612373565b915061336d8261332c565b602082019050919050565b6000602082019050818103600083015261339181613355565b9050919050565b7f6e667432206e6f7420616c6c6f77656400000000000000000000000000000000600082015250565b60006133ce601083612373565b91506133d982613398565b602082019050919050565b600060208201905081810360008301526133fd816133c1565b9050919050565b600061340f8261241a565b91507fffffffffffffffffffffffffffffffffffffffffffffffffffffffffffffffff820361344157613440613096565b5b600182019050919050565b7f7a65726f00000000000000000000000000000000000000000000000000000000600082015250565b6000613482600483612373565b915061348d8261344c565b602082019050919050565b600060208201905081810360008301526134b181613475565b9050919050565b60006040820190506134cd6000830185612ab1565b81810360208301526134df81846123bf565b90509392505050565b7f6e6f74206f70656e000000000000000000000000000000000000000000000000600082015250565b600061351e600883612373565b9150613529826134e8565b602082019050919050565b6000602082019050818103600083015261354d81613511565b9050919050565b7f6578706972656400000000000000000000000000000000000000000000000000600082015250565b600061358a600783612373565b915061359582613554565b602082019050919050565b600060208201905081810360008301526135b98161357d565b9050919050565b7f6e6f742061207061727479000000000000000000000000000000000000000000600082015250565b60006135f6600b83612373565b9150613601826135c0565b602082019050919050565b60006020820190508181036000830152613625816135e9565b9050919050565b7f4f776e61626c653a206e6577206f776e657220697320746865207a65726f206160008201527f6464726573730000000000000000000000000000000000000000000000000000602082015250565b6000613688602683612373565b91506136938261362c565b604082019050919050565b600060208201905081810360008301526136b78161367b565b9050919050565b7f4f776e61626c653a2063616c6c6572206973206e6f7420746865206f776e6572600082015250565b60006136f4602083612373565b91506136ff826136be565b602082019050919050565b60006020820190508181036000830152613723816136e7565b9050919050565b7f5265656e7472616e637947756172643a207265656e7472616e742063616c6c00600082015250565b6000613760601f83612373565b915061376b8261372a565b602082019050919050565b6000602082019050818103600083015261378f81613753565b9050919050565b60006060820190506137ab6000830186612b08565b6137b86020830185612b08565b6137c5604083018461277d565b949350505050565b6000815190506137dc81612b32565b92915050565b6000602082840312156137f8576137f76122d3565b5b6000613806848285016137cd565b91505092915050565b60006040820190506138246000830185612b08565b613831602083018461277d565b939250505056fea26469706673582212209466b73ca3d9b8407495ff759ebd6e86fd8c8f91061418678cdbb34ebb37ec5b64736f6c63430008180033",
  "linkReferences": {},
  "deployedLinkReferences": {}
}